:020000040800F2
:10000000501C0020D5000008B985000805520008E2
:1000100000000000000000000000000000000000E0
:10002000000000000000000000000000DFA9000840
:100030000000000000000000058A0008BDCC000898
:10004000E7000008E7000008DB970008E700000869
:10005000E700000855180008651800087518000822
:10006000E7000008E7000008E70000088D16000818
:10007000E7000008E7000008E7000008E7000008C4
:10008000E7000008E7000008E700000800000000A3
:10009000E7000008E7000008E7000008E7000008A4
:1000A000E7000008E7000008E7000008E700000894
:1000B00001D70008E700000800000000E700000882
:1000C0000348854600F032FD00480047D1E90008AA
:1000D000501C00200448804704480047FEE7FEE724
:1000E000FEE7FEE7FEE7FEE75DCE0008C100000880
:1000F00030B50B46014600202022012409E00D46C0
:10010000D5409D4205D31D469540491B2546954047
:1001100040191546521E002DF1DC30BD70B500248B
:100120002546002801DA01244042002901DA012590
:100130004942FFF7DDFFAC4200D04042002C00D026
:10014000494270BDF0B51FB40646002082B0054696
:100150004024019100901BE0019922460F46304651
:1001600000F0AEFB049A059B801A994110D310460B
:100170001946224600F094FB361A8F410197224619
:1001800001200021009F00F08BFB38184D410090AA
:100190002046641E0028DFDC019B00982946324679
:1001A00007B0F0BD03460B439B0703D009E008C925
:1001B000121F08C0042AFAD203E00B780370401C17
:1001C000491C521EF9D27047D2B201E00270401CA5
:1001D000491EFBD270470022F6E710B513460A46C7
:1001E00004461946FFF7F0FF204610BD421C017877
:1001F000401C0029FBD1801A70470321001D401EBE
:10020000037812021A43491EF9D510467047F8B513
:1002100002464A40D40F42004B0052085B089A4203
:1002200002D20246084611464A0023D0C30D4A00B6
:10023000DDB2120EAD1A202D35DA49020126490A27
:10024000F6058A19002C00D0524220214F1B11467E
:10025000B9402A411018C20D9A4221D0002C17D063
:10026000012D08DCDA05801AD20F8019D207DBB223
:1002700000F052FBF8BDDA05801A012340001B068E
:10028000C01880185A428018CA0F1043490007E06E
:100290004908C2071143DA05801A801940088018FE
:1002A00000F032FBF8BD61000122511A001BF7E794
:1002B0000122D2075140AAE70122D2075040A6E707
:1002C000024670B54A40D30FDB0740002DD04A00EC
:1002D0002AD0010E140E000212020919400A520A15
:1002E0008418E50104465443000A120A2E045043C0
:1002F000A4194219200CC543AA18120C0125AD03FC
:10030000521C521912047F39240400D0521C10438D
:1003100001D44000491EC2B20C06C0092018401C7E
:100320004008802A02D003E0002070BD4008400051
:10033000002900DA0020184370BD70B502464A401B
:10034000D50F40004A00ED0740085208002814D09D
:10035000002A12D0C40DD30D41020120C005520263
:10036000490A520AE41A091812187D34914201D33D
:10037000641C00E04900002C01DA002070BD00235D
:10038000914201D3891A0343400849000028F7D15C
:1003900000290AD0914202D10121C90705E091420A
:1003A00001D2012101E00121C943E005C018401933
:1003B00000F0AAFA70BD0000F0B5074608465840A4
:1003C00087B0C00F049048000E4659004008490805
:1003D000BC1A884105D2384631461E4617460B46A0
:1003E00002465800400810434CD0300D03904005A1
:1003F0005900400D490D0590401A0290402872DACC
:1004000018030121000B090508430190049800928C
:10041000002805D0019952420020884100920190A5
:10042000029840210A1A0199009800F039FA05460D
:100430000C466B4607CB00F054FAC0197141039A81
:100440000E0D0023D71756401A467A40164344D063
:10045000049A002A2DD0029A012A039A15DC12056B
:10046000C01A914101263605001C7141D20F059E2C
:10047000D2070093019202962A46234600F092FA90
:1004800007B0F0BD38463146FAE71605224A0F4656
:10049000B218C01AB74101210905001C4F410018CC
:1004A0007F41114618187941E20F10436D196441DC
:1004B00013E0E2076D0815436408C2071443039A6A
:1004C00001261205C01A91413605001C7141CE0764
:1004D000400830434908C01851412A46234600F0DD
:1004E00054FACDE7FFE7049801224000C117121A21
:1004F00000238B4104983146C417381AA141EEE716
:1005000030B40124E407634030BC55E730B4012423
:10051000E407614030BC4FE70000E0FFF0B51FB4D6
:1005200088B00B990998002448400999C00F4900E8
:1005300049080991C0070B990090490049080B919F
:1005400009990898A64608431CD00B990A980843B5
:1005500018D0099801244000420D4800410D099827
:1005600024050003000B204309900B980003000BA7
:1005700020430B9050181C4940180022019014464B
:10058000104605E0002001460DB0F0BD032801DA59
:10059000034600E003239C46C11A0AAE0AE05F004E
:1005A00008ADED5B4F00F75B7D430027AA187C4147
:1005B000491C5B1E6145F2DD410004AB5A52210427
:1005C000120C0A43240C401C0828DFDB019802901F
:1005D0000099704601910090059B049A079906982E
:1005E00000F0E0F9D0E700000DFCFFFFF0B50C468D
:1005F0005C4085B0E40FE40703944C0000266408D7
:1006000059009446490802460296224321D0624688
:100610000A431ED06200570D4A000E032303550DF6
:10062000012402462C492405781B1B0B360B40186D
:1006300023432643614600901C46501AB44103D31D
:100640000098401C009002E0921800985B4100283E
:1006500003DA0020014605B0F0BD002001210905A4
:100660000746864611E064461D46141BB54106D375
:100670006546521BB341744607430C43A646CD075B
:1006800040084908284392185B4105460D43EAD1CA
:100690001046184313D06046194650407140084335
:1006A00006D06046101AB34106D20122002306E0AC
:1006B00000220123DB0702E00122D24353100098FD
:1006C00074460105381C6141029C039D0019694173
:1006D00000F05BF9BFE70000FD03000070B54B00C0
:1006E0005B0803430BD04B005C0D0026334665428C
:1006F000B341D417AD1AA34102DB0020014670BDFF
:1007000012053018514170BDC217C10F504010B5CD
:100710004018CA079623002100F0FEF810BD10B55E
:1007200000229623114600F0F7F810BD0EB5C2174F
:10073000C10F5040CA0740180021054B0293019297
:1007400000910A460B4600F02DF903B000BD0000F1
:10075000330400000EB505490291002100910A46BC
:100760000B46019100F01EF903B000BD33040000F8
:10077000C20F410040020123400ADB05D207090EE7
:10078000C0187F2901DA00207047962903DC9623E0
:10079000591AC84001E096398840002AF4D04042F6
:1007A0007047410040020122400AD205090E80181C
:1007B0007F2901DA00207047962903DC9622511A1E
:1007C000C8407047963988407047000070B5CD0F1B
:1007D0004A0009030123090B1B0519430B4BED07C5
:1007E0000024520D9A4201DA002070BD074B3433C9
:1007F0009A4203DC9A1A00F063F802E004495118A7
:1008000088402C43F1D0404270BD0000FF0300003F
:10081000CDFBFFFF4A0009030123090B1B05194308
:10082000094B10B5520D9A4201DA002010BD064B5B
:1008300034339A4203DC9A1A00F042F810BD03499F
:100840005118884010BD0000FF030000CDFBFFFFE2
:10085000C20FD207400040080BD0C10D0723DB01B7
:10086000C91840020905400A1143C2084007114354
:10087000704700200146704710B5002904DB0124B1
:10088000E40740428C412146002B04DB1C46012337
:10089000DB075242A341994200D1904210BD0000B3
:1008A00010B5202A04DB0146203A9140002010BDFB
:1008B000914020239C1A0346E3401943904010BD09
:1008C00010B5202A04DB0846203AD040002110BD94
:1008D0000B46D340D0402024A21A91400843194629
:1008E00010BD10B5202A06DBCB170846203A104170
:1008F000C1170B4306E00B461341D0402024A21A37
:1009000091400843194610BD002904DA401C4900F3
:1009100001D140084000704770B40024050C05D197
:100920001024000402D1002921D01124050E01D188
:1009300000020834050F01D10001241D850F01D1EB
:100940008000A41C002801DB4000641C002908D0A2
:1009500020252E1B0D46F540A14000D00121294342
:10096000084301061B1B000ADB1D02D5002070BCDA
:100970007047DB05181880180029F8DA401C490078
:10098000F5D170BC40084000704710B5002B08DA64
:100990000024401C614192185B411A4301D1400878
:1009A000400010BDF0B51FB482B005460C0003D066
:1009B00008460CF057FF02E00CF054FF20300246CE
:1009C000009021462846FFF76BFF049B059A0446DA
:1009D0000F4618431143084314D0184610431BD048
:1009E000009840210A1A18460599FFF769FF054645
:1009F0000E46009A05990498FFF752FF084305D068
:100A0000012004E02046394607B0F0BD0020C117A0
:100A100005430E432C43374300990E986305401A53
:100A20007905E40A00220C43FD0A0A3002D50020B1
:100A30000146E9E70105101969410C9C0D9D00195B
:100A40006941FFF7A2FFDFE7F8B505464800400817
:100A50000C46284304D06000184A400D904201DD46
:100A60002846F8BD15493539884210DC88420BDB31
:100A7000290D200308432903014305D0E00F104945
:100A8000C00741180020F8BD00200146F8BD161A25
:100A90004020821B28462146FFF702FF07460091AF
:100AA000284621463246FFF70BFF3A46009BFFF7E8
:100AB0006CFF3246FFF7F4FEF8BD0000330400007F
:100AC0000000F03F4A0009030123090B1B051943ED
:100AD0000A4B10B5520D9A4202DA0020014610BDB1
:100AE000064B34339A4203DC9A1AFFF7E9FE10BD35
:100AF000034BD218FFF7D4FE10BD0000FF03000027
:100B0000CDFBFFFF10B5002904DB0124E4074042C0
:100B10008C412146002B04DB1C460123DB0752429B
:100B2000A3418B4200D1824210BD0000064C01253A
:100B3000064E05E0E36807CC2B430C3C9847103485
:100B4000B442F7D3FFF7C0FA08F6000828F6000809
:100B500070B58C180578401C6B075B0F01D10378CA
:100B6000401C2A1106D10278401C03E006780E7062
:100B7000401C491C5B1EF9D12B0705D40023521ED3
:100B80000DD40B70491CFAE70378401CCB1A921C59
:100B900003E01D780D70491C5B1C521EF9D5A14263
:100BA000D8D3002070BD000038B50446064805497A
:100BB0000068FFF79DFA604300E0401E00900028A7
:100BC000FBD138BD40420F00C4010020F8B50446F7
:100BD000006881688907890F012902D10168C90766
:100BE00022D18168114A10261140012500290ED119
:100BF0008168294381600120FFF7D6FF01F0E0FC06
:100C000007460CE001F0DCFCC01B0A2807D9A06DE8
:100C10003043A065E06D2843E0650120F8BD206801
:100C20000068C043C007EDD10020F8BD1700008068
:100C3000F0B589B00C4607461022002168460DF039
:100C40003FFF6946224608460DF0E0FA6846007804
:100C500087260106684600290FDA00214318425C06
:100C60005B785200DB091A434254491C0F29F5DB1B
:100C7000C17B0246490071400DE000214318425CEF
:100C80005B785200DB091A434254491C0F29F5DBFB
:100C9000C17B02464900D173E21DF9325169102926
:100CA00012D0017809061BD500214518435C6D78E8
:100CB0005B00ED092B434354491C0F29F5DBC17B35
:100CC00003464900714019E000216218FF320132E9
:100CD0005378455C491C6B4053701029F5DB26E0C6
:100CE00000214518435C6D785B00ED092B434354AC
:100CF000491C0F29F5DBC17B03464900D973E11D6F
:100D000055698023FA316B54002500E05D54536926
:100D10005B1C5361102BF9D300216218FF320132A2
:100D20005378455C491C6B4053701029F5DB00215A
:100D300062181046FF32E0300132437C5278491C81
:100D4000534043741029F3DB21461022F13104A8EB
:100D50000DF09EFE2246394604A80DF057FA1022E7
:100D6000002168460DF0ACFE09B0F0BD10B5044698
:100D700010220021F1300DF0A3FEFF2000211530DC
:100D80000151F02220460DF09BFE10BD0B4610B520
:100D90000246102118460DF063FA10BDF0B5044666
:100DA000FF308BB00F4601300890E11D4069FA31E9
:100DB0000091103915460791002843D010210E1AD2
:100DC000AE4200D316460099B2B2401839460DF033
:100DD0005FFE0898089940698019486110283AD345
:100DE000B54238D0002162181046FF32E03001329F
:100DF000437C5278491C534043741029F3DB079914
:100E0000224608460DF002FABF19AD1B1AE0002079
:100E10002118E0314A7C3B5C401C5A404A7410283F
:100E2000F6DB102202A807990DF032FE02A9224635
:100E300008460DF0EBF9102202A907980DF028FEE4
:100E4000103D1037102DE2D8AAB2394600980DF0A7
:100E50001FFE089845610BB0F0BD000038B5124C7C
:100E6000216FFF31FF310231C87D8A7D904219D256
:100E7000082817D8401CC875216FC00712D021223E
:100E800068460270FF200130425C68468270D520BF
:100E9000425C684642700878694609F0A0FB216F01
:100EA000C031487538BD00006C0C002070B5174C7F
:100EB0000646E078012820D00BF00CFE01281CD05B
:100EC000BC202070BE2060700025A570E5702571E3
:100ED000012060710E4823460E49083323C30E4A91
:100EE000011F0A6022C03460E168204609680029B9
:100EF00004D08847012807D0002070BD1421FFF7D7
:100F00006AF90120356070BD3068F7E7E40400201D
:100F10007C010020000000206800002070B5184C03
:100F20000646E078012821D00BF0D4FD01281DD021
:100F3000BC202070BE2060700025A570E570257172
:100F4000012060712046234628300E49083323C310
:100F50000E490D4A0A6022C03460E16820460968E3
:100F6000002904D08847012807D0002070BD142133
:100F7000FFF731F90120356070BD3068F7E70000F8
:100F80000C050020340000206800002090010020A3
:100F900010B500280AD0C268002907D09269002A3B
:100FA00004D09047012800D0002010BD012010BDC2
:100FB00010B5002208460A60FFF778FF012800D02C
:100FC000002010BD10B5002808D0C168896800292C
:100FD00004D08847012800D0002010BD012010BD9A
:100FE00010B502221449012386B000281ED0012822
:100FF00004D002281AD0032807D117E0CA6A1A437E
:10100000CA62C96AC907C90F059141000B4A80002D
:10101000515A009100210291032103910849019343
:101020000858694601F004FA06B010BDCC6A1443B2
:10103000CC62C96A1140E7E70010024000F10008E5
:10104000B401002010B5054A4100515A044A8000FD
:101050001058002201F0AEFA10BD000000F10008A7
:10106000B401002010B5054A4100515A044A8000DD
:101070001058012201F09EFA10BD000000F1000896
:10108000B401002070B5194C0546E078012823D042
:101090000BF020FD01281FD0B1202070BA20607015
:1010A0000026A670E6702671012060711149E1608A
:1010B0000F48A06010492161104A011F0A6042C018
:1010C0002C60E16820460968002906D0884701287D
:1010D00009D005F08BF8002070BD1421FFF77BF8D4
:1010E00001202E6070BD2868F7E70000F80400209A
:1010F000880100206C000020D40000204C0100205A
:1011000070B51B4C0646E07D012828D00BF0E2FCB0
:10111000012824D0B1202075BA2060750120A07567
:101120000025E5752576607620463030E06111486F
:10113000206211486062124810490160214628313E
:10114000CD608860084614383060C168096800299D
:1011500006D08847012809D005F048F8002070BD66
:101160001421FFF738F80120356070BD3068F7E7CB
:101170000C050020A0000020100100204C010020E0
:101180009401002010B500280AD0C268002907D0B9
:101190009269002A04D09047012800D0002010BD99
:1011A000012010BD10B5002208460A60FFF76AFF53
:1011B000012800D0002010BD10B5002808D0C1685B
:1011C0008968002904D08847012800D0002010BD7C
:1011D000012010BD10B500280AD0C268002907D030
:1011E0009269002A04D09047012800D0002010BD49
:1011F000012010BD10B50C460021216000280AD046
:10120000012804D02046FFF789FE012808D1204696
:10121000FFF776FF02E02046FFF780FE012800D0AE
:10122000002010BD10B5002808D0C16889680029C9
:1012300004D08847012800D0002010BD012010BD37
:1012400010B50D490020FFF7B3FE0B490020091D22
:10125000FFF7D0FF084900200831C043FFF7A2FF85
:10126000054C2068FFF7AEFE6068FFF7DBFFA06863
:10127000FFF7A2FF10BD0000CC0100203EB50446E0
:1012800000200D4D00900190029069462868FFF7FC
:101290007FFE01A96868FFF79DFF02A9A868FFF714
:1012A00071FF0098A0600198606002982060034878
:1012B000E060034820613EBDCC0100200D093E00E6
:1012C000AB030500FFB5102504464557112087B034
:1012D000205606900A98A1680160607900270128CD
:1012E0003FD169460873A07C8873E07C03A909F0AC
:1012F00076F946B2B54200DC3546B54203D10A98CC
:10130000002101602DE0A189A068884209D307204F
:10131000694608730127E07C03A909F060F940B22F
:101320000690A089E1894218A068824219D8FEF788
:10133000DFFE012915D12121684601734573A17C87
:101340008173E07C03A909F04AF945B2B54208D19E
:1013500020790027012804D169460871E07C09F052
:1013600048F90898057009990698087038460BB036
:10137000F0BD0000FEB51C4C1122216F52018A18ED
:10138000127900250126002A6A462AD01670FF31FC
:1013900001318A7C69468A70144FC870B86C0BF0B2
:1013A0008DFD0190E06802900F4869464D706030F5
:1013B000407B400706D5002005F0B2FB002801D095
:1013C00068464670206F6946007808F0D7FE216FA6
:1013D000E068FF31FF310231898B4143081A78649C
:1013E000FEBD1570D3E700006C0C00206C0B0020D4
:1013F0000449C96D002903D08968002900D0084735
:10140000704700006C0B002000B5134A030092687F
:101410000CF03FFA081D05090D121416181D13468D
:101420000C33D06806E013461033106902E013460F
:1014300050691433D36206E0906904E0D06902E099
:10144000106A00E0506A814203D8401C01D000209D
:1014500000BD012000BD00005C0F0020F0B587B08A
:101460001D4614460F4606000CD0002D0AD0134826
:101470000490FFF77BFC05A9204600F023FB040045
:1014800003D019E0022007B0F0BD05990498491C6B
:10149000FFF77CFC3A4631460498FFF77FFC68462C
:1014A0000499FFF7C5FB00A80130FEF7A6FE6946C8
:1014B00009780002084328602046E4E7BC130020B6
:1014C000FFB5C7B0539E17460C46050008D0002E46
:1014D00006D0FF200130844204D90B204BB0F0BD70
:1014E0000720FBE7FF221132002103A80DF0E8FAE4
:1014F000519803AA6B46529907C339462046509B20
:101500004A9A07F081FA2246294607A80DF0C0FA48
:101510001034A1B233463A4603A80AF08DFE0028E3
:10152000DCD00C20DAE7FFB5C9B0569E17460C4652
:10153000050008D0002E06D0FF200130844204D9D7
:101540000B204DB0F0BD0720FBE7FF221132002138
:1015500004A80DF0B5FA53A807C8009004AB01A881
:101560000EC039462046529B4C9A07F07FFA22461D
:10157000294608A80DF08CFA1034A1B233463A4639
:1015800004A80AF059FE0028DBD00C20D9E7FFB5EB
:10159000002085B0009005460646019000247700A3
:1015A00007980121C05BA14008422FD028190C22C6
:1015B00003905043089A1258002A27D0059A002A0F
:1015C00001D1890722D008994118082002910856B4
:1015D000021100070117069840B208F0D9FF002851
:1015E00014D00298407A01010E980818C0680028AB
:1015F00004D00198401CC0B2019007E0009A0F99F6
:10160000039888540098401CC0B20090641CE4B257
:10161000102CC5D31035761CEDB2F6B2102DBDD30B
:10162000109901980870009809B0F0BD30B587B0E6
:1016300014216846FEF7CFFD0320019000200290A0
:1016400003204003104C0090E06A01210843E0624F
:10165000E06A0840059005206946000700F0E8FEB2
:10166000E06A40084000E062606B0125AD05284358
:10167000606300F079FC00F087FC00F07DFC606B9B
:10168000A843606307B030BD0010024010B50DF0F4
:10169000E3FB10BD10B5046863608368102B03681A
:1016A00003D099600068C26010BD9A600068C16094
:1016B00010BD00001FB5044600290BD0002000908B
:1016C000019002900390022C06D0032C06D0082033
:1016D00004B010BD0720FBE7062000E005206A46A5
:1016E000107000A8082201300DF0DDF905482346EE
:1016F0000122694600680AF0A7FD0028E8D00C2006
:10170000E6E700005C0F0020F0B585B01E461746E6
:101710000546002913D0002F11D0002E0FD0002035
:101720000090019002900390042D0AD0052D08D05E
:10173000062D06D0072D06D0082005B0F0BD0720E5
:10174000FBE7012000E002206A4610706C4603228D
:10175000601C0DF09DF903223946201D0DF098F90B
:1017600002223146E01D0DF093F905482B46012277
:10177000694600680AF068FD0028DED00C20DCE72E
:101780005C0F0020FFB585B017460546002915D02F
:10179000002F13D00898002810D0002001240090BA
:1017A000019002900390042D0AD0052D0AD0062D39
:1017B00025D0072D25D0082009B0F0BD0720FBE774
:1017C000012000E003206A4610706E460322701C60
:1017D0000DF05EF908223946301D0DF064F9022241
:1017E00003A808990DF054F907482B46224669468C
:1017F00000680AF029FD0028DED00C20DCE7042078
:10180000E1E700240220DEE75C0F002000280BD077
:10181000002909D0027B20301307002B06D0037863
:10182000002B03D000200EE003207047037A002B2A
:1018300003D0120703D016207047012003E0007880
:10184000002803D003200870002070470220FAE728
:101850007047704710B5012000F0DEFD022000F057
:10186000DBFD10BD10B5042000F0D6FD082000F00F
:10187000D3FD10BD10B5102000F0CEFD202000F0EB
:10188000CBFD402000F0C8FD802000F0C5FDFF200A
:10189000013000F0C1FD0120400200F0BDFD01203B
:1018A000800200F0B9FD0120C00200F0B5FD01206A
:1018B000000300F0B1FD0120400300F0ADFD012068
:1018C000800300F0A9FD0120C00300F0A5FD10BDBC
:1018D00001A00BF0FDFBFEE74572726F725F48617D
:1018E0006E646C65720A0D0010B50520FFF780FD6F
:1018F00010BD10B50420FFF77BFD10BD10B506200C
:10190000FFF776FD10BD10B50220FFF771FD10BD89
:1019100010B50720FFF76CFD10BD10B50320FFF7D1
:1019200067FD10BDF0B58BB00546119C109894462C
:10193000002C14D0002606960796089601270996D3
:101940000096019602966A4603961770002B08D0FF
:10195000012B06D0022B06D006200BB0F0BD0720CD
:10196000FBE7177101E00223137163465371917114
:101970000B0AD3710B0C1372090E51729072010A8B
:10198000D172010C000E11735073D773002D15D056
:1019900006AB0622102168460AF01AFC002801D086
:1019A0000C20DAE7002006AA06E03118635C175C19
:1019B0007B40401C6354C0B2A842F6D30020CCE761
:1019C0000649800009580648091803D0C14203D0CF
:1019D00000207047012070470220704794F10008F2
:1019E000702FFCFF38B51A4C184820608B208000FF
:1019F00060602046143005F0F5F82061002000906A
:101A0000124869467438006F007808F0DFFDA06066
:101A10000098E06020461C300AF048FCA061204697
:101A2000243004F01DFF206220462C3004F0B4FE68
:101A3000A0622046343005F015F8206320463C3083
:101A400005F022FBA063204638BD0000E00C00201A
:101A50000C0F002070B505461446084604E00178D6
:101A6000A94204D003F070FDA042F8D1002070BD5F
:101A700010B5094A0021CB00D458844207D89B18DE
:101A80009B68834203D9C8008018007910BD491CA7
:101A9000C9B21529EFD3FEE7D8EF000810B5084BFF
:101AA000002294001C5D844204D19000C01808609C
:101AB000002010BD521CD2B2052AF2D3092010BD5D
:101AC000B002002010B50D4B002214011419E418C7
:101AD000FF34FF340234247B844208D110011018F3
:101AE0008322C018920080180860002010BD521C8C
:101AF000D2B2162AE9D3032010BD0000C81200207C
:101B000038B50A496B460A6FD11DF9310C789C70C3
:101B100058700C201870487D012801D10D201870D4
:101B20001078194608F05BFDC0B238BD6C0C00207F
:101B3000884201D1C8B201E0401EC0B240B2704735
:101B4000F8B5054604464035287D0026012808D012
:101B500001202875206881688907890F01290ED125
:101B600001E00220F8BD0168C90708D0A06D20215E
:101B70000843A0650126002028753046F8BDA16DF8
:101B8000FF220132914302221143A165C1688907F6
:101B9000890F0091C16889088900C1602068816847
:101BA00092071143816000F00BFD07460EE000F044
:101BB00007FDC01B0A2809D9A06D02218843102106
:101BC0000843A065002028750120F8BD20688068C2
:101BD0000028ECDB2068C168009A1143C160A06D49
:101BE00080088000401CA065C5E70000F8B50646E7
:101BF0000D464036317D01290DD001213175016836
:101C00008A68520709D5816D202211438165002021
:101C100030750120F8BD0220F8BD174B6A68D80561
:101C200047109A42154C8A6A2B6812D05B035B0BF3
:101C30001A438A622968490305D5A1680143A16056
:101C40000A20FEF7B1FF2868800312D5A068384348
:101C50000EE05B035B0B9A438A622968490302D555
:101C6000A1688143A1602868800302D5A068B843B9
:101C7000A06000203075F8BD011000000027014071
:101C80000068006C7047000070B5040006D0A06DBD
:101C9000264600254036002802D006E0012070BD0F
:101CA000E5653575204600F0D1F8A06DC00603D477
:101CB00021688868400705D5A06D10210843A065FC
:101CC0003575EBE7A06DFF220132904302221043ED
:101CD000A06588688207920F5A48012A02D10A68D3
:101CE000D2072BD1032362689B079A4205D05B423F
:101CF0009A4202D05B009A4209D10A699200920886
:101D00000A6121680A6963681A430A610CE00A697A
:101D1000920092080A6181680F22920491438160C7
:101D200081686268114381602168CA6818239A43F8
:101D3000CA602168CA68A3681A43CA608168012220
:101D40005206914381608168228F5206114381605F
:101D500020688168C90004D48168012212071143F8
:101D600081602068C168384A1140C1602169E0681B
:101D7000022923D000210843216A226B4903520023
:101D800011430843616B0843A16989030843E16972
:101D9000C90308432168CA681043C860A06A0146A5
:101DA000FF39C23905D0E16A08432168CA68104387
:101DB000C860606A0121012802D00BE00421DAE743
:101DC000206A002823D0A06D20221043A065E06D7A
:101DD0000843E065206C012820681FD00169C9070D
:101DE00003D0016949084900016120684169C908B7
:101DF000C900416120684169E26B11434161E565B9
:101E0000A06D80088000401CA065002070BD206887
:101E1000C26801231B041A43C260DBE70269FF2387
:101E20009B009A43026120680269636CE66C1A4366
:101E3000A36C33431A430261206802690A430261BA
:101E4000D3E70000002701401902FEFF7047F8B5F4
:101E500004464069254640350E4608280BD02068C8
:101E6000C068C00709D0A06D20210843A0650020EC
:101E700028750120F8BD082700E00C2700F0A0FB22
:101E8000009011E0701C0FD0002E05D000F098FBE0
:101E90000099401AB04207D9A06D04210843A065FB
:101EA000002028750320F8BD206800683842E9D07A
:101EB000A06D012149020843A0652068C168090599
:101EC0008A0F0C21002A1AD1226A002A17D102682F
:101ED000120714D5826853070122002B08DB4368E0
:101EE0008B434360A06D130298431043A06506E046
:101EF000A06D20231843A065E06D1043E065A06944
:101F0000002801D1206801600020F8BD70B50446AA
:101F1000216800208968490721D425464035297D5C
:101F200001291CD001212975E169012904D020462D
:101F3000FEF74CFE002811D1A16D0A4A1140FF2284
:101F400001321143A1650021E165297522681C2138
:101F5000116021688A6804231A438A6070BD0220D8
:101F600070BD0000FEF1FFFF0248416849084900CA
:101F70004160704700580140024841680422914383
:101F80004160704700580140024841680222914375
:101F9000416070470058014070B50024024620326D
:101FA0005179022903D00421C16301243CE0016876
:101FB0000B680E25AB430B6001680B685B085B0088
:101FC0000B601A4B0168994201D1012121E0174BA6
:101FD0001433994201D110211BE0144B283399424C
:101FE00001D1891515E0114B3C33994201D1891477
:101FF0000FE00E4B5033994202D10121090408E051
:102000000A4B6433994202D10121090501E0012103
:102010000906064B083B59600121517100211171DD
:10202000816B002900D08847204670BD080002401F
:10203000F8B504469D4801689C4A9C4E9B4F083267
:10204000206813041C363037904201D108221EE06C
:10205000B04201D180221AE0B84202D10122D2025C
:1020600015E0924A4432904202D10122D2030EE09E
:102070008E4A5832904201D11A4608E08B4A6C329F
:10208000904202D10122D20501E00122D20625466A
:102090001140203500293BD00168090738D5016877
:1020A000082291430160814920680831884201D1AA
:1020B00008201EE0B04201D180201AE0B84202D1CF
:1020C0000120C00215E079494431884202D1012043
:1020D000C0030EE075495831884201D1184608E026
:1020E00072496C31884202D10120C00501E0012013
:1020F000C0066E494860E06B01210843E06304209C
:10210000687100202871616B002901D02046884742
:1021100066480168654A206808321315904201D16B
:1021200004221EE0B04201D140221AE0B84201D19F
:102130001A4616E05D4A4432904202D101229203CF
:102140000FE05A4A5832904202D10122920408E02C
:10215000564A6C32904202D10122920501E00122DE
:102160009206114238D00168490735D501688906C1
:1021700003D4026804218A4302604C492068083174
:10218000884201D104201EE0B04201D140201AE073
:10219000B84201D1184616E044494431884202D180
:1021A000012080030FE041495831884202D10120CB
:1021B000800408E03D496C31884202D1012080054D
:1021C00001E0012080063949486005206871216BD3
:1021D000002901D02046884734480168334A2068E6
:1021E00008325315904201D102221EE0B04201D1C3
:1021F00020221AE0B84201D11A4616E02B4A443296
:10220000904202D1012252030FE0284A58329042F4
:1022100002D10122520408E0244A6C32904202D1D9
:102220000122520501E00122520611423CD0016810
:10223000890739D50168890603D4016802229143D0
:1022400001601A4920680831884201D102201EE04D
:10225000B04201D120201AE0B84201D1184616E060
:1022600012494431884202D1012040030FE00F4956
:102270005831884202D10120400408E00B496C31FA
:10228000884202D10120400501E0012040060749B3
:102290004860E06BE0630120687100202871E16A0A
:1022A000002901D020468847F8BD00000000024008
:1022B00070B5002805D0034620335979002902D093
:1022C00003E0012070BD00211971022159710468D9
:1022D00022683749C5680A4081684669294305690B
:1022E0003543294385692943C5692943056A29433B
:1022F000114321602F492F4C02687831A24206D148
:102300008A6A120912018A628A6A406849E0294C85
:102310001434A24207D18A6AF024A2438A628A6AEC
:10232000406800013DE0234C2834A24208D18A6A6B
:102330000F242402A2438A628A6A4068000230E0C5
:102340001C4C3C34A24208D18A6A0F242403A243C5
:102350008A628A6A4068000323E0164C5034A24225
:1023600008D18A6A0F242404A2438A628A6A808878
:10237000000416E00F4C6434A24208D18A6A0F248C
:102380002405A2438A628A6A8088000509E08A429D
:1023900009D18A6A0F242406A2438A628A6A0079D4
:1023A000000602438A6201205871002070BD0000BF
:1023B0000FC0FFFF08000240F8B504462030057941
:1023C000012D1ED00125057102264671206807687F
:1023D000AF4307602046FFF75DF92068016831438D
:1023E00001602068016804221143016020680168CF
:1023F0000822114301602068016829430160002020
:10240000F8BD0220F8BD01B5009802F01BFC08BD24
:1024100010B502F0C7FA10BD10B504494A6902426E
:1024200002D04861FFF7F4FF10BD00000004014036
:10243000F8B500230124A7E027469F403A4070D01A
:102440004D68022D01D0122D14D1DD08AD002D18DC
:1024500000952D6A5E07AC46F50E0F26AE46AE40DF
:102460006546B543AC460E697546AE4065462E439B
:10247000009D2E624D68012D05D0022D03D0112D37
:1024800001D0122D16D185680326AC465D00AE46FC
:10249000AE406546B543AC46CE687546AE4065462F
:1024A0002E43866046680D79BE43ED06ED0F9D40D4
:1024B0003543456006685F000325BD40AE46AE4328
:1024C0000D79B446AE07B60FBE4065462E43066092
:1024D000C6687546AE438D68BD403543C5604D68DE
:1024E000ED0050D52B4D6E6B26436E639E082A4D32
:1024F000B6007519AC46AD689E07360F0F27B7407A
:10250000BD4305273F07B84201D100271AE0234FFA
:10251000B84201D1012715E0214FB84202D102276C
:1025200010E030E01F4FB84201D103270AE01E4FF0
:10253000B84201D1042705E01C4FB84201D105275C
:1025400000E00627B7402F436546AF60184D2E6860
:102550004F689643FF0300D516432E606E684F68A0
:102560009643BF0300D516436E60AE684F6896432E
:10257000FF0200D51643AE60EE684F689643BF0277
:1025800000D51643EE605B1C0A681546DD4000D09E
:1025900052E7F8BD00100240000001400004005066
:1025A00000080050000C005000100050001C0050AB
:1025B00000040140002A01D08161704781627047A8
:1025C0000148006870470000C801002070B5040091
:1025D00014D024212046403005464170206801680F
:1025E000490849000160204600F0C0F900216164FB
:1025F00069702163A9702970084670BD012070BD03
:10260000403040787047000070B5040006D0254681
:10261000403568780026002802D005E0012070BD12
:102620002E70204600F0A3F924206870206801680D
:102630004908490001600F21606809068843216844
:10264000086121688A680120C00382438A60E168CA
:102650000129A16808D021229202114322689160C9
:10266000E168022902D005E00143F7E70121226871
:10267000C902516021684A680F4B1A434A602168B9
:10268000CA688243CA60616920690843A169090276
:1026900008432168C860216AE0690843216808602E
:1026A000206801680122114301606664202068707F
:1026B0002663AE70002070BD00800002FFB50546A5
:1026C00004464035687883B0202872D10C980028E1
:1026D00070D00D9800286DD02878012869D001208D
:1026E0002870FFF76DFF0746012200901923D103E0
:1026F000204602F0B5FE002875D1222068704020E7
:10270000A870002666640C9860620D986085666308
:102710000E980090019704A90EC9204602F020FEF1
:10272000002804D0606C2E7004285FD05BE0618DBF
:102730003748FF2905D9FF22228501231B06009077
:1027400006E0618D21850090208D0123C2B25B06D9
:102750002046049902F070FE0097002204212046D2
:102760000E9B02F07DFE00283DD12068416A606A20
:10277000421C62620170208D401E81B22185608DF5
:10278000401E6085002921D1608D00281ED0009751
:102790000022802120460E9B02F062FE002822D1FA
:1027A000608DFF2807D9FF22228501231B06009692
:1027B00008E02AE01AE0608D20850096208D012334
:1027C000C2B25B062046049902F036FE608D0028F6
:1027D000C2D13A4620460E9902F066FE002807D084
:1027E000606C042802D0032007B0F0BD0120FBE795
:1027F00021682020C86121684A68064B1A404A6057
:102800006870AE702E700020EEE70220ECE700004A
:102810000024008000E800FEFFB505460446403570
:10282000687883B0202876D10C98002874D00D9851
:10283000002871D0287801286DD001202870FFF77A
:10284000BFFE0746012200901923D103204602F063
:1028500007FE002853D1212068704020A870002670
:1028600066640C9860620D98608566630E980090AF
:10287000019704A90EC9204602F0A8FD002804D043
:10288000606C2E7004286AD039E0608DFF2805D96D
:10289000FF22228501231B06009606E0608D20851D
:1028A0000096208D0123C2B25B062046049902F0F7
:1028B000C3FD3A4620460E9902F01DFE002803D0C3
:1028C000606C04284BD01AE0606A411C6162216888
:1028D00000788862608D401E6085208D401E000457
:1028E000000C208524D1608D002821D00097002283
:1028F000802120460E9B02F0B3FD002802D0032069
:1029000007B0F0BD608DFF2807D9FF222285012383
:102910001B06009608E024E021E0608D20850096EB
:10292000208D0123C2B25B062046049902F084FD8B
:10293000608D0028BDD13A4620460E9902F0B4FDC4
:102940000028BDD120682021C16120684268064B63
:102950001A4042606970AE702E700020D0E70120EE
:10296000CEE70220CCE7000000E800FE7047704789
:1029700002480168491C016070470000C80100203E
:1029800010B506480168022211430160032000F0DF
:1029900007F800F007F8002010BD000000200240FA
:1029A0000020704710B50948816B02041143816310
:1029B00000F030F800F026F80548016808221143BD
:1029C000016000F017F802F09FF810BD00100240FF
:1029D00000200240002805DBC106C90E0120884006
:1029E000014908607047000000E100E010B50AF0FE
:1029F0005DFF10BD02480168021511430160704778
:102A000000700040024801684215114301607047A0
:102A10000070004002480168102291430160704735
:102A200000700040F8B56649074601250020ED0317
:102A3000624B634A4031102F6FD011DC012F77D0E9
:102A4000022F6CD0042F6BD0082F24D1C968032427
:102A5000240321407BD0BD026C10A9427CD0A0E0B1
:102A60000326584C3604202F0BD0402F35D0FF3F83
:102A7000012F10D1C968314069D07C04A1426BD0CC
:102A800096E00B690969012731403F04B94203D13F
:102A9000990559E02846F8BD01256D04A94203D1E6
:102AA0009907F8D54848F8BDB142FCD111688903AF
:102AB000F9D5116803200005014001200005091A1D
:102AC00009D0091A05D0814201D14048F8BD2046FD
:102AD000F8BD3F48F8BD3F48F8BDC9680125AD06BF
:102AE000294006D0A942F7D191688907F4D53A4820
:102AF000F8BD11688901FBD5D068D1688002374DD7
:102B0000000F2D5C0802810FD068491CC0030AD455
:102B10001068C00605D5204606E045E008E023E041
:102B200030E0184600E02E486843FDF7E1FAF8BDB2
:102B3000CC68A407A40F0CD0022C0DD0012C10D00F
:102B4000032CF4D1096989050029A3DBF8BD16E03F
:102B500002E000F0D1F9F9E711684907F6D5184607
:102B6000F4E700F0D9F9F1E7CC680C26344006D040
:102B7000082CF1D0042CF4D00C2CE3D0E6E700F0C4
:102B8000ABF9E3E7CC680326B6023440F7D001275F
:102B9000FF02BC42E0D07A109442E2D0B442D1D0DD
:102BA000D4E7A142DDD0D1E7916B4902E7D4CDE76C
:102BB000012212049142D4D0C8E700000024F4009E
:102BC0000010024000093D008890000020A107008D
:102BD00040420F0080841E00006CDC0218F10008E7
:102BE00000127A00F8B5044600785E4D800672D572
:102BF0005C4E0027403EB06BC00004D4B06BA9050A
:102C00000843B063012758480168C90511D4016819
:102C1000821511430160FFF7D3FC009005E0FFF738
:102C2000CFFC0099401A642837D84F480068C00587
:102C3000F5D532680321090560680A4001409142D8
:102C400008D08103890F032904D13168890301D594
:102C50000120F8BD2A69032109040A4022D0084056
:102C600090421FD0207880061CD528692A698843A5
:102C70000121C9040A432A612A698A432A61286119
:102C8000C0050FD5FFF79CFC009008E0FFF798FC0B
:102C90000099411A3548814201D90320F8BD2869BD
:102CA0008005F3D561688803800F032805D1326859
:102CB0000005824301400A433260286903226168AB
:102CC0001204114008432861002F04D0B06B012189
:102CD00009078843B0632078C00705D0E868A16879
:102CE000800880000843E8602078800705D5E86800
:102CF0000C218843E1680843E8602078400706D546
:102D0000E86803218902884321690843E860207844
:102D1000000706D5E8680321090388436169084371
:102D2000E8602088C00506D5E868032109048843C7
:102D3000A1690843E8602078400606D5E8680121CB
:102D400089068843216A0843E8602078000606D592
:102D5000E868032189048843E1690843E8600020AA
:102D6000F8BD0000401002400070004088130000D1
:102D7000F8B5054653480E460068C007C00FB0427C
:102D80000AD250480168490849003143016000688F
:102D9000C007C00FB0426FD128784B4C800705D5D3
:102DA000E068F0218843A9680843E0602878C007FC
:102DB00052D06868022817D0032818D0216801284B
:102DC00018D08905002957DAE1688908890001438C
:102DD000E160FFF7F5FB69680746022912D0032975
:102DE0001CD0012926D033E021688903EAE7216855
:102DF0008901E7E74907E5E7FFF7E2FBC11B334835
:102E0000814223D8E0680007800F0228F4D123E034
:102E1000FFF7D6FBC11B2D48814217D8E068000799
:102E2000800F0328F4D117E0FFF7CAFBC11B274826
:102E300081420BD8E0680007800F0128F4D10BE035
:102E4000FFF7BEFBC11B2148814201D90320F8BD19
:102E5000E0680007800FF3D11A480168C907C90F5D
:102E6000B1420BD90168490849003143016000684B
:102E7000C007C00FB04201D00120F8BD287840073C
:102E800006D5E068072109028843E9680843E06045
:102E90002878000707D5E0680721C9028843296917
:102EA000C9000843E06000F037F8E168084A090605
:102EB000090F515CC840074908600320FFF770FD07
:102EC0000020F8BD002002400010024088130000DE
:102ED00008F10008C4010020044805490068C968D9
:102EE000044A4905490F515CC8407047C40100209D
:102EF0000010024021F10008044805490068C96833
:102F0000044A8904490F515CC8407047C40100203D
:102F10000010024021F1000810B5184AD1680C20B9
:102F2000084004280BD0082810D00C2810D0506876
:102F30000004410F0120C003491C884010BD1068E7
:102F4000C00601D50E4810BD0E4810BD0E4810BD7C
:102F500088020E4B000F185C0902D368890F491CC8
:102F6000DB0301D5084A05E01268D20601D5044A00
:102F700000E0044A5043FDF7BBF810BD00100240CA
:102F800000093D000024F40000127A0018F1000846
:102F9000F8B504460078FF4DC0074CD0E86800073C
:102FA000800F022807D0E8680007800F032809D1A6
:102FB000E868C00306D5286880033CD5606800280F
:102FC00075D038E0012062680004824203D129688C
:102FD0000143296011E0052301211B0489049A4261
:102FE0002A6802D10A432A60F1E782432A602A68EC
:102FF00002400092286888432860606800280DD04D
:10300000FFF7DEFA0646E44F04E0FFF7D9FA801B2B
:10301000B8427DD828688003F7D50CE0FFF7D0FAD6
:103020000646DD4F04E0FFF7CBFA801BB842F0D82C
:1030300028688003F7D42078800741D5E8681F27E7
:103040000007800F3F02012807D0E8680007800FC3
:10305000032809D1E868C00306D42868400717D5BB
:10306000E068012823D113E0E068002817D0296820
:103070000922914301432960FFF7A2FA064604E0C2
:10308000FFF79EFA801B0228C3D828684007F7D5AF
:1030900068682169B84309020843686010E028683D
:1030A000400840002860FFF78BFA064605E090E0F4
:1030B000FFF786FA801B0228ABD828684007F7D4B0
:1030C0002078C00676D5E868B44E0007800F0BD094
:1030D000E06900285DD02868FF210131084328609D
:1030E000FFF76EFA074644E02868800502D5E069DC
:1030F00000286ED0606A69683140884212D906F0B3
:1031000005FB0028AED16868616AB043084300E05F
:10311000E4E068606868218C0002000A0906084340
:1031200068600FE06968B143014369606868218C99
:103130000002000A090608436860606A06F0E6FAC1
:1031400000288FD1606A410B0120C003491C8840D0
:10315000E968934A0906090F515CC8409149086023
:103160000320FFF71DFC25E0FFF72AFAC01B022809
:103170008AD828688005F7D56868616AB043084333
:1031800068606868218C0002000A090608436860CC
:1031900010E02968FF20013081432960FFF710FA11
:1031A000064604E0FFF70CFA801B022884D8286842
:1031B0008005F7D420787C4E000723D5606900286D
:1031C000306910D0012108433061FFF7F9F9074653
:1031D00005E009E1FFF7F4F9C01B02287ED8306949
:1031E0008007F7D50EE0400840003061FFF7E8F9AE
:1031F000074604E0FFF7E4F9C01B02286ED83069E7
:103200008007F7D42078400761D5A86B0027C0005D
:1032100005D4A86B012109070843A8630127634867
:103220000168C90511D40168821511430160FFF7D7
:10323000C7F9009005E0FFF7C3F90099401A642828
:103240004CD85A480068C005F5D5FF20A268013067
:10325000824203D131690143316111E001218902C8
:10326000002A07D005231B029A4203D132690A4380
:103270003261EFE7326982433261306988433061FD
:10328000A06800280ED0FFF79BF9009006E0FFF73A
:1032900097F90099411A404881421FD8306980054A
:1032A000F5D50DE0FFF78CF9009006E0FFF788F9FF
:1032B0000099411A3848814210D830698005F5D408
:1032C000002F04D0A96B012000078143A963207857
:1032D000800630D53649A0694A1400E07DE0002818
:1032E00016D0AB6801200343AB606B6B03436B6389
:1032F000086A10430862FFF763F9064604E0FFF727
:103300005FF9801B022868D8A8688007F7D512E00B
:10331000A86840084000A860086A90430862FFF768
:103320004FF9064604E0FFF74BF9801B022854D8FA
:10333000A8688007F7D4A06A002853D0E968090775
:10334000890F032950D0012636060228286805D0A7
:10335000B0432860FFF734F9044640E0B0432860EA
:10336000FFF72EF9074604E0FFF72AF9C01B0228F1
:1033700033D828688001F7D4216BE06AEA680843F3
:10338000616BFD231B049A4311430843E8602868DE
:1033900030430FE0001002408813000000E00000FE
:1033A00008F10008C40100204010024000700040F5
:1033B000000001402860FFF703F9044604E0FFF72E
:1033C000FFF8001B022808D828688001F7D509E01B
:1033D000FFF7F6F8001B022801D90320F8BD286882
:1033E0008001F5D40020F8BD0120F8BD00688900F7
:1033F000503008180068704700688900503008187D
:103400000260704730B5014620310A78012A15D094
:1034100001220A7002234B700468CA2363620468A5
:103420005323636203689C6820252C439C600068DA
:10343000FF2343624A700020087030BD022030BD77
:1034400010B509F05FFD10BDF8B5054604462035FE
:10345000287801281DD00120287002206870226879
:10346000CA205062226853205062FF20013000269B
:10347000FF2781421CD121688A6882438A602068C4
:1034800081680122120391438160FFF799F800904F
:1034900009E00220F8BDFFF793F80099411A7D205A
:1034A000C00081421BD82068C068C007F3D020E06C
:1034B00020688168012252029143816020688168FE
:1034C000120191438160FFF77BF800900DE0FFF758
:1034D00077F80099411A7D20C000814205D9206803
:1034E0004762032068702E70F8BD2068C0688007AE
:1034F000EDD520684762012068702E700020F8BD6D
:1035000010B500680B464068C021C9430140000265
:10351000000ECC04D870E40E5C708C06A40E090476
:10352000490F9C701970002A0AD106F027F9D8704B
:10353000587806F023F95870987806F01FF99870BB
:10354000002010BD30B50B460168896A59600168DA
:1035500009694904490C9960006804680F482146CC
:10356000014088024D04800E18706D0E49065D7092
:10357000490E99706102490E40242140D970002AF9
:103580000AD106F0FBF81870587806F0F7F8587072
:10359000987806F0F3F89870002030BD7F7F7F00A8
:1035A00070B5040005D0254620356878002802D083
:1035B00006E0012070BD00202870204600F042F88F
:1035C000022068702168CA2048622168532048623E
:1035D000204606F0E6F8FF210028206803D041626B
:1035E00004206870E5E78268154B1A408260226803
:1035F00090686368A6691843236933431843906051
:103600002268E06810612068026923891B041A435C
:1036100002612068C26880239A43C2602068C26C3D
:1036200092089200C264E269606902432068C36C38
:103630001A43C2642068416201206870002070BD96
:10364000BFFF8FFF00B597B00420009000200A90C4
:10365000FF20013002906846FFF79AFC002801D055
:10366000FEF736F920200E90C0020F900EA8FFF74B
:10367000B9FA002801D0FEF72BF9084801690122A8
:10368000920411430161002211460220FFF7AEF9B6
:103690000220FFF79FF917B000BD00004010024064
:1036A000FEB506460446203630780B46012842D047
:1036B000012030700220707020681D4600272035E0
:1036C0008068002A39D0400655D5187806F056F89B
:1036D000287806F053F8197898780904084359783F
:1036E000DA780902120411430843297809060843CD
:1036F000D9690843596908430546996958680843D8
:1037000000902168CA204862216853204862FF2047
:103710005A6A0130802182424AD1226893688343E9
:1037200093602268D0680840FF388238D060FEF786
:1037300047FF019029E00220FEBD400600D4DF7063
:10374000187806F023F80204587806F01FF80002F3
:103750000243987806F01AF80243D878000402432E
:10376000287806F013F800060243D8690243586926
:1037700002431546C1E7DF70AAE7FEF721FF019972
:10378000411A7D20C00081422AD82068C068C00745
:10379000F3D02068C561216800984864206881687A
:1037A000FF2201321143816020688168120130E0FC
:1037B0002068826801235B029A4382602068C268A5
:1037C0000A401D495118C160FEF7FAFE01900EE053
:1037D000FEF7F6FE0199411A7D20C000814206D90C
:1037E0002168FF204862032070703770FEBD20689A
:1037F000C0688007ECD5206805622168009888645D
:10380000206881680122520211438160206881682A
:1038100012011143816009480268012149040A43E9
:10382000026082680A4382602168FF2048620120AA
:10383000707037700020FEBD7FFDFFFF0004014067
:10384000F8B505460446203528780B46012815D0E2
:1038500001202870022068705878002A10D005F0E6
:103860008DFF987805F08AFFD8789E78000406438B
:103870005878197800024903084316E00220F8BD81
:10388000C10603D5EF2108400A305870D87805F0FA
:103890007DFF0604587805F079FF0002064398780A
:1038A00005F074FF06431878400306432168CA20D8
:1038B0004862216853204862204605F072FF0027C5
:1038C000002811D110480640206846602068C16871
:1038D00080229143C1602068806880060CD4204615
:1038E00000F08CF8002807D02168FF2048620420EF
:1038F00068702F700120F8BD2168FF204862012008
:1039000068702F700020F8BD3FFFFF00F8B5064635
:103910000446203630780D4601280ED00120307044
:1039200002207070206800278068002A07D04006B7
:103930001AD5287805F022FF17E00220F8BD4006CE
:1039400000D4EF70287805F021FF0204687805F0B4
:103950001DFF00020243A87805F018FF0243E87833
:103960000004024300920BE0EF702978A878090464
:1039700008436978EA780902120411430843009069
:103980002168CA204862216853204862204605F019
:1039900008FF00281FD118490098084021680860D6
:1039A0002068816801229204914381602969E86856
:1039B000084321688A68104388602068C1688022B3
:1039C0009143C1602068806880060CD4204600F0D6
:1039D00015F8002807D02168FF2048620420707085
:1039E00037700120F8BD2168FF2048620120707007
:1039F00037700020F8BD00007F7F7F0070B504465F
:103A00000068C168A0229143C160FEF7D9FD7D2600
:103A10000546F60006E0FEF7D3FD401BB04201D993
:103A2000032070BD2068C0688006F4D5002070BDFA
:103A300070B5040006D025464035687C0026002875
:103A400002D005E0012070BD2E74204600F032F84F
:103A50000220687420680168402291430160A168D7
:103A6000606822690843E1681143084361690122E3
:103A70000843A169520211400843E1690843216AE1
:103A80000843A16A084321680860A0690421000C6A
:103A90000840616A0843216848602168E06A08615B
:103AA0002068C16992009143C16166650120687414
:103AB000002070BD7047F8B50446002768460780AF
:103AC00026464036707C012802D0707C22287ED1A8
:103AD00000290CD0002A0AD0002B08D0307C012805
:103AE00075D001203074707C012802D003E00120E1
:103AF000F8BD322070746765A263A387E3872163F2
:103B0000A386E386A764E7640125A06A6D03A84243
:103B100007D120680168A943016020680168294332
:103B2000016020680168490603D4016840221143FE
:103B300001600121FF20E268C90205308A42616804
:103B400066D1002904D081420CD1E08E012809D130
:103B5000206B21680088C860206B801C2063E08E89
:103B6000401EE086E08E002843D1A06AA84246D1DC
:103B70002068016801221203114301603FE02068C0
:103B8000C068A16B0880A06B801CA063B0E000221D
:103B900002212046069B06F0C9FE00287DD1206B3D
:103BA00021680088C860206B801C2063E08E401E66
:103BB000E086E08E002808D1A06AA84205D12068DE
:103BC00001680122120311430160002200E0CCE0F1
:103BD00001212046069B06F0A9FE00287FD120681F
:103BE000C068A16B0880A06B801CA063E08F401EA2
:103BF000E087E08E0028CAD1606800287BD10022CF
:103C000001212046069B06F091FE002867D1B6E709
:103C1000002904D081420BD1E08E012808D1206B0D
:103C2000411C216321680078C860E08E401EE08658
:103C3000E08E002845D1A06AA84205D1206801681D
:103C40000122120311430160002201212046069B3C
:103C500006F06CFE002842D12068C068A16B087095
:103C600046E0002202212046069B06F05FFE002867
:103C700035D1206B411C216321680078C860E08E3B
:103C8000401EE086E08E00280AD1A06AA84207D133
:103C9000206802680121090300E020E00A43026075
:103CA000002201212046069B06F040FE002816D186
:103CB0002068C268A06B411CA1630270E08F401EA7
:103CC000E087E08E0028CCD16068002813D1002264
:103CD00001212046069B06F029FE002802D0032081
:103CE000F8BD08E02068C168A06B421CA2630170A7
:103CF000E08F401EE087A06AA8420FD10022012178
:103D00002046069B06F012FE002802D0606D0221BC
:103D10000EE02068C068694608800888012280217A
:103D20002046069B06F002FE002804D0606D20218C
:103D300008436065D3E701207074A06AA84211D1DE
:103D400020688168C943C9060CD4616D0222114301
:103D500061650168A9430160206801682943016029
:103D60003774C4E637740020BAE70220B8E770471A
:103D700070470000F8B502680446D069116806076C
:103D8000360F07D1830605D58B0603D5204609F0EB
:103D9000FBFAF8BD95682023002E65D0EE07F60FDC
:103DA000FF2721370F4037435ED0C70706D0CF0526
:103DB00004D501271762E26E3A43E266820708D50E
:103DC000EA0706D0276802223A62E26E04273A43E5
:103DD000E266420708D5EA0706D0256804222A626F
:103DE000E26E02252A43E266020709D50A461A4016
:103DF000324305D0236808221A62E36E1343E36658
:103E0000E26E002AC5D0800604D5880602D5204679
:103E100009F0BAFAE06E000703D420688068400613
:103E20001CD5204609F098FA20688168490611D50A
:103E3000826840218A438260606E00280AD01D4952
:103E40008163606EFEF7A8F80028A2D0606E816BD7
:103E50008847F8BD2046FFF78BFFF8BD2046FFF7E7
:103E600087FF0020E066F8BD2646C7026036002FB7
:103E70000ADA6D0208D50120000510627372B37270
:103E80002046FFF774FFF8BD050605D50D0603D5DE
:103E9000204609F0D1FBF8BD4006FCD54806FAD50E
:103EA0002046146840218C431460737200F0D0F8EF
:103EB000F8BD0000C1D2000870B5040005D0254649
:103EC0006035687A002802D006E0012070BD00202D
:103ED0002872204600F026F82420687220680168C5
:103EE000490849000160606A002802D0204609F0B4
:103EF00051F9204609F088FA0128E7D02068416886
:103F00000922D20291434160206881682A229143AC
:103F1000816020680168012211430160204609F098
:103F20009FF970BD38B520490546CA6A0120024391
:103F3000CA62CA6A02400092CA6A0243CA62CA6A74
:103F4000024000928A6B43041A438A630A6B02435D
:103F50000A63086BC007C00F00900AF0ABFF144C57
:103F60001248206000211020E160A0606161A16121
:103F7000E161802021622061042060602046FEF71C
:103F800097F92C66012200210B20A562FEF72EFD79
:103F90000B20FEF71FFD012200211C20FEF726FD4D
:103FA0001C20FEF717FD38BD0010024080000240C3
:103FB000B406002070470000F8B505460446603599
:103FC000687A20283BD100290BD0002A09D0012390
:103FD000A0681B03984206D12069002803D1C807B6
:103FE00001D00120F8BD287A012828D001202872AC
:103FF00020464030E164028242820026E6662120AB
:104000006872216E0F48C862216E0F480863216EE6
:104010000E484863206E134686632768E16C3A4673
:104020002832206EFEF7C8F92168402008622E72FF
:10403000206881688022114381600020F8BD022041
:10404000F8BD00001FD300084FD30008D5D20008E8
:10405000014800680047000020020020704738B582
:1040600004466B460122202100F025FA00280CD1DD
:104070006A4611788020014311706B46012220218D
:10408000204600F09BFB002800D0012038BD38B549
:104090000446002069460870204600F047F90128D0
:1040A00005D0694620780978884201D0012038BDC2
:1040B000002038BD38B504466B460122202100F0AF
:1040C000FAF900280DD1684600786B464106490E82
:1040D0006846017001222021204600F06FFB002875
:1040E00000D0012038BD38B514460D466B4601227C
:1040F000272100F0E0F9002801D0012038BD6846F2
:1041000000788007C00F287068460078C007C00F8D
:104110002070002038BD10B50B4601220F2100F0A1
:10412000CAF9002800D0012010BD0000F3B583B00B
:1041300007466B460222302100F0BDF9002824D149
:10414000684600786B464508684640780222400879
:1041500002903621384600F0AEF9002815D16846A5
:104160000024045F6B4602223A21384600F0A3F98E
:1041700000280AD168460026865F6B460222282165
:10418000384600F098F9002802D0012005B0F0BDB3
:1041900068460027C75F2846FCF7B6FA0190301B37
:1041A000FCF7B2FA06460298401BFCF7ADFA05464A
:1041B000381BFCF7A9FA2946FCF782F83146FCF7D0
:1041C000BCF80199FCF723F80A49FCF779F80A4989
:1041D000884202DD7D20C00008E0FF21C905C842F9
:1041E00001D3002002E0FCF7DCFA80B204990880D9
:1041F0000020CBE70000204100007A4438B50C468F
:10420000694600F01FF801280CD0684600780028A5
:104210000BD0012807D002280AD003280AD006486C
:104220002060012038BD7F20C0052060002038BDFF
:104230000248FAE70248F8E7000080BF0000E040CB
:104240000000484138B50C466B460122202100F0A1
:1042500032F9002801D0012038BD6946087880076E
:10426000800F08702070002038BD0000F3B585B0C5
:1042700007466B460222322100F01DF900282BD19F
:1042800001AB01223521384600F015F9002823D171
:104290006A46117912788807800D10430C2211406C
:1042A0006A46527889011143C510C81003906B46C5
:1042B00004223C21384600F0FEF800280CD1684664
:1042C00000240226045F865F6B4602222A213846BC
:1042D00000F0F1F8002802D0012007B0F0BD6846D8
:1042E0000027C75F2846FCF70FFA0290301BFCF747
:1042F0000BFA06460398401BFCF706FA0546381BE6
:10430000FCF702FA2946FBF7DBFF3146FCF715F80C
:104310000299FBF77CFF0449FBF7D2FFFCF728FA70
:10432000069908800020D8E70000204110B5FFF76B
:10433000F2FE012800D0002010BD10B5FFF7A7FE47
:1043400010BD10B5044680680068006840780028F9
:1043500004D1204600F056F8012805D0A1680020BD
:10436000096809680870E07010BD1CB50C4601AA08
:104370006946FFF7B8FE012806D068460078002895
:1043800003D0012801D001201CBD207000201CBDDD
:1043900038B50D46002469460C80FFF7C7FE01289A
:1043A00008D068460088FCF7BAF90349FBF7C5FF57
:1043B0002860204638BD00000000204110B5FFF7FE
:1043C0001DFF10BD10B5FFF7B1FF10BD10B50446BD
:1043D0008068006800684078002804D1204600F01A
:1043E00051F8012806D0A168012009680968087001
:1043F000E070002010BD10B500F06BF8012800D06F
:10440000002010BD10B504460079002810D0A06827
:1044100000680068C078002804D1204600F062F8E7
:10442000012805D0A16800200968096888702071FA
:1044300010BD10B504460079012806D0A0680068B8
:104440000068C078002802D006E0002010BD204699
:1044500000F04FF80128F9D0A16801200968096827
:1044600088702071F1E710B500F090F810BD10B51C
:1044700000F0A0F810BD10B500F0AEF9012800D092
:10448000002010BD10B50446FFF701FE012811D031
:104490002046FFF70FFE01280CD00121204600F036
:1044A0002FF8012806D00021204600F06FF80128DF
:1044B00000D0002010BD10B51C46012A01D9802370
:1044C00019431346224608F00DFB002800D00120B6
:1044D00010BD10B513460122FFF7EDFF012800D0F3
:1044E000002010BD10B5FFF7E5FD012800D0002029
:1044F00010BD10B5FFF7B3FD012800D0002010BD9E
:1045000038B50C460546012905D0002C03D00E49CC
:104510000EA000F06BF96B4601222021FFF7CBFFC4
:1045200000280FD169460978FB200140A00008430C
:10453000694608706B4601222021284600F03EF9AA
:10454000002800D0012038BD630200002E2E5C2E12
:104550002E5C2E2E5C2E2E5C2E2E5C2E2E5C44723B
:1045600069766572735C4253505C436F6D706F6E19
:10457000656E74735C6874733232315C48545332C4
:1045800032315F4472697665722E630010B50B009C
:1045900009F07FF90504060606060D00012100E07A
:1045A000032100F01DF8012800D0002010BD0120DB
:1045B00010BD00007F2210B5D205914201DC01211F
:1045C00005E0064A914201DC022100E0032100F0EF
:1045D00007F8012800D0002010BD00000000E040D6
:1045E00038B50C00054609D0012C07D0022C05D0A7
:1045F000032C03D00D490EA000F0F8F86B46012201
:104600002021FFF758FF00280DD1694608786B4636
:10461000800880002043087001222021284600F0F5
:10462000CDF8002800D0012038BD0000BA020000FB
:104630002E2E5C2E2E5C2E2E5C2E2E5C2E2E5C2EB4
:104640002E5C447269766572735C4253505C436FB2
:104650006D706F6E656E74735C6874733232315C4A
:104660004854533232315F4472697665722E63006A
:1046700010B5FFF70CFD10BD10B50446806800684A
:1046800000680078002804D1204600F057F801287F
:1046900005D0A1680020096809684870E07010BD65
:1046A0001CB50C466A4601A9FFF71DFD012806D07E
:1046B00068460078002803D0012801D001201CBDE5
:1046C000207000201CBD10B5FFF798FD10BD000044
:1046D00038B50D46002469460C80FFF7C7FD012858
:1046E00008D06946085FFCF70FF80349FBF725FE81
:1046F0002860204638BD00000000204110B5FFF7BB
:1047000015FE10BD10B5044680680068006800788A
:10471000002804D12046FFF7B5FE012806D0A16885
:104720000120096809684870E070002010BD10B5CC
:10473000FFF7CFFE012800D0002010BD10B50446C1
:104740000079002810D0A0680068006880780028F0
:1047500004D12046FFF7C6FE012805D0A16800203D
:1047600009680968C870207110BD10B50446007949
:10477000012806D0A068006800688078002802D070
:1047800006E0002010BD2046FFF7B3FE0128F9D057
:10479000A168012009680968C8702071F1E710B5A7
:1047A000FFF7F4FE10BD10B5FFF704FF10BD10B504
:1047B00000F012F8012800D0002010BD10B51C46F2
:1047C000012A01D9802319431346224608F0A2F991
:1047D000002800D0012010BD07B502AB0122FFF771
:1047E000EDFF012800D000200EBD00000A46014662
:1047F00001A008F0FDFFFEE757726F6E6720706141
:1048000072616D65746572732076616C75653A20AE
:1048100066696C65202573206F6E206C696E65205B
:1048200025640D0A0000000010B512480178002927
:104830001ED10122027011480F490160002101645C
:10484000C161D3078161436082638160C16001629D
:1048500007234162C3630261C162042242610163B2
:104860000748416B4215114341630448FDF70CFAB8
:1048700010BD000024020020002401406407002035
:10488000001002407CB51E49064609780020002928
:1048900034D01C484168C9430907FBD41A4C606BEB
:1048A00065152843606300211848FDF749F9184849
:1048B00000901848019069461448FDF797F9A01434
:1048C0000190694600961148FDF790F90F48FDF7F1
:1048D0001DFB0021C9430D48FDF7B9FA0B48FDF750
:1048E000CFF90A4980B20A6893680226334393607D
:1048F000096803220A60616BA94361637CBD000003
:1049000024020020007000400010024064070020D4
:10491000FFFF070001100000014600200A0A00D036
:104920000820084A114201D004221043064A1142CD
:1049300001D002221043054A114201D0012108434F
:1049400070470000F0F00000CCCC0000AAAA0000E4
:1049500038B50B231B07C518114B0FD01C152D1B89
:1049600018D02D1B19D0A542DD6A05D10824254396
:10497000DD62DB6A234007E08024F8E7DC6A01257A
:104980002C43DC62DB6A2B40009311601146FDF77B
:104990004FFD38BDDD6A0224E9E7DD6A0424E6E75D
:1049A0000010024010B5FFF7B7FF810003484158DF
:1049B000002901D00020884710BD000044050020D8
:1049C00070B51C4615460E460846FFF7A5FF0A4976
:1049D000002C0DD080000C50304603F019FD044629
:1049E00000222946FEF702F82046FDF7F3FF70BDCE
:1049F000002280000A5070BD4405002010B5D2B2DC
:104A0000FDF7D8FD10BD000070B500240E48FFF77B
:104A100039FF0E4E0E4D010013D00E483246008B6A
:104A20005043FBF765FBB04201D9FE2409E0A842E0
:104A300007D3401BFE2148434B210901FBF758FBDC
:104A4000C4B2204670BD000000000244B80B000054
:104A5000080700006000F81F03494A690869496AAD
:104A600050404840704700004000F81F70B51148A2
:104A7000FFF708FF104C01001AD0208B0F4A50435B
:104A8000FBF736FB05460E48FFF7FCFE68430B4973
:104A9000FBF72EFB618B0522401A12035043E28B79
:104AA000511AFBF73BFB0F214902401880B270BD41
:104AB0000025E8E7000002446000F81FB80B000082
:104AC000000004480F494B6A0A69D218120EC271DD
:104AD0004B6A0A69D218120C82710A8A8B8CD2181E
:104AE000120A42710A7C8B8CD21802714A69120E2A
:104AF000C2704A69120C82708A8A120A4270097D59
:104B0000017070474000F81FF0B587B01421684667
:104B1000FBF761FB224CE06A01210843E062E06A96
:104B200008400590E06A02252843E062E06A2840D8
:104B30000590E06A04263043E062E06A3040059068
:104B4000E06A80273843E062E06A694638400590B1
:104B500003200190002002901248009005200007D9
:104B6000FDF766FC1048009069461048FDF760FCB0
:104B700069460F48FDF75CFC69460E48FDF758FC96
:104B8000E06A40084000E062E06AA843E062E06A50
:104B9000B043E062E06AB843E06207B0F0BD0000F5
:104BA00000100240FF9F0000FFFF000000040050C3
:104BB00000080050001C005010B5104C6078002810
:104BC0001AD1FFF731FE0E480068804700F026FA40
:104BD00000F0D0F808F06CFAFCF732FB0020FCF78C
:104BE000FFF90120FCF7FCF90220FCF7F9F903209A
:104BF000FCF7F6F90120607010BD000024020020CF
:104C000088F0000870B50C46054600210448FEF700
:104C1000EDFB286001210248FEF7E8FB206070BD33
:104C20008405002010B50C46024600210448FEF71A
:104C3000E3FB224601210248FEF7DEFB10BD000027
:104C40008405002070B5410EC0017D220023FBF7D2
:104C500079FA054600F086F8044600E000BF00F04F
:104C600081F8001BA842F9D370BD10B586B0044688
:104C7000694605A800F00AF8830A8005800D00F057
:104C8000ABF92080184606B010BD000070B505468F
:104C90000C4600222248FEF755FC002229462048F7
:104CA0006668FEF72DFC002221461D48FEF74AFCEF
:104CB0006068B042F1D1E8781A4A01465043C01CFE
:104CC0008308880729D0184869783D220E46514349
:104CD0000A463C3A7100891EC840D10F80078918E6
:104CE000800F4910081AC018A978401E08180F49EB
:104CF0003C2248436178E123514322781B015A4307
:104D00008918A27810180818810D83026068084C71
:104D10000022201A1818514170BD0648D4E700003F
:104D200084050020B5050000A0AA9900805101006B
:104D3000FF030000505544000320704701480068FD
:104D400070470000D005002000B587B0694605A86F
:104D5000FFF79CFF0249096807B0401A00BD000038
:104D6000D005002000B587B0694605A8FFF78EFF83
:104D700007B000BD10B5084C207800280AD100F01B
:104D80004DF8FF2101310548FEF75EFB00F076F893
:104D90000120207010BD0000D801002084050020F3
:104DA00010B50D4C0021042000F0FCFE01200B4941
:104DB0004004486121688868C0040BD5C868C005F4
:104DC00008D5C86880221040FF388238C860204665
:104DD000FEF736FB10BD00008405002000040140F2
:104DE00070B50446FFF7B0FF211A0B4D0220285E74
:104DF000C01C814201D9002100E00121042000F003
:104E0000D1FE00F0A7FE012802D10220285E241A5C
:104E1000204600F03FF870BDD801002010B51449BD
:104E2000144886B0002412C01F2101608460046110
:104E30001149446141600838FEF7B2FB6946CC7500
:104E40000120487588750875002205A90948FEF7F4
:104E5000F7FC0094019404940022694605480394E9
:104E6000FEF754FD0348FEF7CDFA06B010BD000072
:104E70000028004084050020FF03000010B5044C0A
:104E80002046211D1830FFF701FF206010BD0000F3
:104E9000D0050020F0B587B0044614223F4901A890
:104EA000FBF780F93D485038406E009000F07EF8E6
:104EB0003B4802993B4A401AA105890D081887B260
:104EC000A10A68468078534202E08918401C80B2EB
:104ED0009942FAD26A461579E122120102E0891A52
:104EE0006D1CADB29142FAD26A46547902E0641C5C
:104EF000A4B23C393C29FAD2927951188EB20121E0
:104F0000890203E07A1A761C97B2B6B28F42F9D2C0
:104F100003E03C3E641CB6B2A4B23C2EF9D203E0DE
:104F20003C3C6D1CA4B2ADB23C2CF9D203E0183D60
:104F3000401CADB280B2182DF9D26946C9788907F4
:104F400069464A7827D01849491E515C814202D2ED
:104F5000FBF7CEF808461249CA1B10492C394A60A3
:104F6000052252068A618E704C700A460D702032FE
:104F700010706846C079C8700020C861FF2248617F
:104F80000132C8604A620861024608462438FEF7CA
:104F900087FB07B0F0BD04490C31D5E7D4050020EC
:104FA000FF03000080AEFEFF29F1000810B5FF21CD
:104FB00001310748FEF748FA05480168C8688022B1
:104FC0001040FF388238C86002499002486110BD25
:104FD0008405002000040140810A7D228005D20062
:104FE000800D50435143800A0818704710B5410E98
:104FF000C0017D220023FBF7A5F810BD01B582B0EA
:105000000020C0430090012301AA02A90248FEF734
:1050100052FD684680880EBDEC05002010B51C4886
:105020001A4901601C4A1B4B0021126803E0520818
:10503000491C072901D29A42F9D84A078B07D20F97
:10504000DB0F52011B011A43C90700D008210A4394
:10505000C2610021816001614161FF22C1600532AE
:1050600081624260012201625202826141620B4808
:10507000416B8214114341630548FEF7D9FC0028B7
:1050800001D0FCF725FC00F00BF810BD003001400A
:10509000EC05002080969800C4010020001002401A
:1050A00030B585B014216846FBF795F802200190D1
:1050B00000240320039002946A46082104940F48B8
:1050C000FFF746FC05252D076A4640212846FFF7D5
:1050D0003FFC6A4680212846FFF73AFC01200294F3
:1050E000C40301906A4621462846FFF731FC01229D
:1050F00021462846FFF782FC05B030BD0004005071
:10510000F3B53D4C0025206F81B0C030007A0E46CB
:10511000022802D03948406B804701F045FB002847
:1051200006D0022001F057FB002001F032FB0125E0
:10513000206FC030007A012819D101F03BFB002814
:105140000AD0002001F04AFB002001F03DFB01F0F5
:105150002FFB002804D146E001F02AFB002806D0EE
:10516000002001F039FB002001F02AFB3BE0002D7C
:1051700039D1214D10276035297B28464038002938
:10518000216F06D0FF31FF310231497E01291ED047
:105190001EE0FF31FF310231497E012901D1019921
:1051A0004173019801F006FD206FC030007A02289B
:1051B0001ED01348006C07F081FE0F498039896CBE
:1051C000884210D30C48543807F040FF08E046737B
:1051D000304601F0EFFC206FC030007A022807D083
:1051E000687B38436873206FC030007A022801D191
:1051F00003F0A0FBFEBD00006C0C002088F000084E
:105200006C0B002000BFFDE710B50348FDF7DEF989
:1052100000F004F810BD00009804002010B50E48FE
:10522000FDF7EEF900280DD10B480C494160332100
:1052300081600121C1600A49016000F013F806484D
:10524000FDF7E2F90448FDF7DBF9202801D0012041
:1052500010BD002010BD0000980400202E11B100E8
:105260000054004010B5164C86B0E16A022001439C
:10527000E162E16A039001400591032109020020E7
:1052800000910290122104200191049069460D487A
:10529000FDF7CEF8A16B012040050143A163A16A8F
:1052A0000143A162A16A8143A16200221146172035
:1052B000FDF79CFB1720FDF78DFB06B010BD00002D
:1052C000001002400004005001688A69D24392072E
:1052D00001D400228A6200688169C943C90703D0EA
:1052E000816901221143816170470000F7B50446CE
:1052F00000680E468069C043C0062CD4202725468E
:10530000403520688069C04380060FD5701CF8D0F6
:10531000002E05D0FDF754F90299401AB042F0D999
:105320006F700020A87028700320FEBD2168102037
:10533000C8612068C7612046FFF7C6FF2068416842
:10534000064A11404160042060646F700020A8701C
:1053500028700120FEBD0020FEBD000000E800FE18
:10536000F8B50446164618481D46DAB20090079F65
:105370000023204600F060F83A462046069900F0E7
:10538000BAF8002803D0606C04281BD018E0284627
:10539000F5B2012809D02168300A88623A462046D1
:1053A000069900F0A8F80028EDD1206885620097E2
:1053B000002240212046069B00F052F8002800D031
:1053C0000320F8BD0120F8BD00200080F8B5044698
:1053D000164618481D46DAB2C3020090079F2046C1
:1053E00000F02AF83A462046069900F084F8002892
:1053F00003D0606C04281BD018E02846F5B20128C1
:1054000009D02168300A88623A462046069900F0A1
:1054100072F80028EDD12068856200970022802173
:105420002046069B00F01CF8002800D00320F8BDA1
:105430000120F8BD00200080F0B50668059C756865
:10544000064F600D384385438805800D11040843DD
:105450001843204305437560F0BD0000FF63FF0360
:10546000F8B51C4617460E46054611E0601C0FD0E5
:10547000002C05D0FDF7A4F80699401AA04207D9E0
:105480002020403568700020A87028700320F8BDE7
:10549000286881693046884304D00020B842E5D0AE
:1054A0000020F8BD0120F9E770B516460D46044608
:1054B0001AE0324629462046FFF718FF002801D09F
:1054C000012070BD002D04D0FDF77AF8801BA842A2
:1054D0000AD9616C2020014361644034607000206F
:1054E000A0702070032070BD20688069C0438006D2
:1054F000DFD4002070BD70B516460D4604461CE092
:10550000324629462046FFF7F1FE002801D001204F
:1055100070BD681C11D0002D04D0FDF751F8801B20
:10552000A8420AD9616C2020014361644034607054
:105530000020A0702070032070BD20688069C043E7
:105540008007DDD4002070BD044909690A46103285
:10555000824201D108467047001D7047B0100020FC
:1055600010B507A1095C07A007F0B2FD0C480021A7
:10557000017102214171002100F0ACFA10BD000060
:105580004142430073776974636820746F20636CD1
:1055900061737320256320646F6E650A0D0000003F
:1055A000F401002010B5002000F062F910BD0000E9
:1055B00030B55D4D8DB06960A860816828460C30BB
:1055C0008847A868C068804709F040FC5749002018
:1055D00009F0AEFB286056A007F07AFD0028FAD14A
:1055E000514C0C34E379A27961792079019002A8B9
:1055F0000EC0E0780090A378627821784EA007F082
:1056000067FD0028EED159A0296807F061FD002848
:10561000F9D1454C5C34E37BA27B617B207B0C930E
:1056200009AB07C3E37AA27A617A207A089305ABC3
:1056300007C3E379A27961792079019002A80EC0AD
:10564000E0780090A378627821784C4807F040FD1C
:105650000028E0D1344C6C34E37BA27B617B207B5F
:105660000C9309AB07C3E37AA27A617A207A05909A
:1056700006A80EC0E379A27961792079019002A889
:105680000EC0E0780090A378627821783C4807F05B
:105690001FFD0028E0D13C483A4901603B49416088
:1056A0003B4981603B49C160A96810300A680260CB
:1056B0004A684260096AC16001460022103801F060
:1056C000ADFE314C022020342070686800782071D3
:1056D000204602F0C3F91A20207068688078207193
:1056E000204602F0BBF9052020700F481C30606096
:1056F000204602F0B3F9062020700B482C30606081
:10570000204602F0ABF9002020702071204602F004
:10571000A5F92B20207014206060204602F09EF92D
:1057200002F062FE0DB030BD28020020FFFFFF0135
:105730004142500A0D0000004465764575693D20E0
:10574000253032582D253032582D253032582D2510
:105750003032582D253032582D253032582D2530F5
:1057600032582D253032580A0D000000446576412C
:1057700064643D2020253038580A0D00DCF4000810
:1057800038F50008CD840008D0070020F98400080F
:1057900065850008A5850008F0B585B02B48019007
:1057A00008300646143E0290706801AC41786846A5
:1057B00001730ECC2648264C0EC003202C342070DA
:1057C00000252046656002F049F904202070306809
:1057D0006060204602F042F90920207030463C30DB
:1057E0006060204602F03AF90A20207030464C30C2
:1057F0006060204602F032F90B20207030465C30A9
:105800006060204602F02AF90C20207030466C308F
:105810006060204602F022F9012727702771204698
:1058200002F01CF96846C77085700321417005704D
:10583000302020700648009901632C3002F00EF9E8
:10584000B0684069804705B0F0BD00003402002018
:10585000C407002000B587B001216846017002F03E
:1058600081F868460079002800D0012007B000BD0B
:10587000F0B587B00646002468462746047002F05B
:1058800071F868460079B04227D03100144E154DAA
:1058900004D001290ED002291FD10FE068460771FC
:1058A00002F0DCF8002803D1B0688169002013E021
:1058B0002C4612E00C4807F00BFC0EE0002800D04C
:1058C0002C46022069460871684602F0C7F8002895
:1058D000EED1B068816902208847204607B0F0BD4C
:1058E00028020020FFFFFFFF94F5000870B5044672
:1058F000417944A007F0ECFB60794A4D022820D0A2
:10590000032810D063280DD120688078642870D0D7
:105910000020A87000286ED043A007F0D9FB022019
:10592000FBF7A0FB70BD20790128FBD1206800782F
:10593000002803D0012801D00228F3D1FFF798FFF7
:1059400070BD20790128FBD120680078A87000285C
:1059500004D138A007F0BCFB0020A880A87801285B
:1059600004D138A007F0B4FB0120A880A878102843
:1059700004D137A007F0ACFB0220A880A87811283A
:1059800004D136A007F0A4FB0320A880A8780A2839
:1059900004D135A007F09CFB0420A880A878A0289B
:1059A00004D134A007F094FB0520A880A8780B2828
:1059B00004D133A007F08CFB0620A880A878B0287B
:1059C00004D132A007F084FB0720A880A8780C2817
:1059D00004D131A007F07CFB0820A880A878C0285B
:1059E000AED130A007F074FB0920A88070BD00E0A4
:1059F00001E001208DE72EA007F06AFB0220FBF7F3
:105A000021FBF3E75041434B455420524543454960
:105A1000564544204F4E20504F52542025640A0DC5
:105A200000000000DC0100204C4544204F4E0A0DD0
:105A3000000000004D414E55414C204F46460A0D96
:105A4000000000004D414E55414C204F4E0A0D00C4
:105A50004155544F204F46460A0D00004155544FC2
:105A6000204F4E0A0D00000050554D50204F464625
:105A70000A0D000050554D50204F4E0A0D000000F9
:105A8000464F5859204F46460A0D00005055585968
:105A9000204F4E0A0D0000004C49474854204F4605
:105AA000460A0D004C49474854204F4E0A0D00004D
:105AB0004C4544204F46460A0D00000010B50448EE
:105AC0000021017102214171002100F003F810BD95
:105AD000F401002030B585B00D46044608F0B4FC52
